{
  "contractName": "PotGovernance",
  "abi": [
    {
      "inputs": [
        {
          "internalType": "string",
          "name": "_name1",
          "type": "string"
        },
        {
          "internalType": "address",
          "name": "_addr1",
          "type": "address"
        },
        {
          "internalType": "string",
          "name": "_name2",
          "type": "string"
        },
        {
          "internalType": "address",
          "name": "_addr2",
          "type": "address"
        },
        {
          "internalType": "string",
          "name": "_name3",
          "type": "string"
        },
        {
          "internalType": "address",
          "name": "_addr3",
          "type": "address"
        },
        {
          "internalType": "string",
          "name": "_name4",
          "type": "string"
        },
        {
          "internalType": "address",
          "name": "_addr4",
          "type": "address"
        }
      ],
      "payable": false,
      "stateMutability": "nonpayable",
      "type": "constructor"
    },
    {
      "anonymous": false,
      "inputs": [
        {
          "indexed": false,
          "internalType": "uint32",
          "name": "_proposalKey",
          "type": "uint32"
        }
      ],
      "name": "ProposalAdded",
      "type": "event"
    },
    {
      "anonymous": false,
      "inputs": [
        {
          "indexed": false,
          "internalType": "uint32",
          "name": "_proposalKey",
          "type": "uint32"
        }
      ],
      "name": "ProposalApproved",
      "type": "event"
    },
    {
      "anonymous": false,
      "inputs": [
        {
          "indexed": false,
          "internalType": "uint32",
          "name": "_proposalKey",
          "type": "uint32"
        }
      ],
      "name": "ProposalCancelled",
      "type": "event"
    },
    {
      "anonymous": false,
      "inputs": [
        {
          "indexed": false,
          "internalType": "uint32",
          "name": "_proposalKey",
          "type": "uint32"
        }
      ],
      "name": "ProposalRejected",
      "type": "event"
    },
    {
      "anonymous": false,
      "inputs": [
        {
          "indexed": false,
          "internalType": "uint32",
          "name": "_proposalKey",
          "type": "uint32"
        }
      ],
      "name": "VoteCast",
      "type": "event"
    },
    {
      "payable": true,
      "stateMutability": "payable",
      "type": "fallback"
    },
    {
      "constant": true,
      "inputs": [
        {
          "internalType": "uint256",
          "name": "",
          "type": "uint256"
        }
      ],
      "name": "potOwners",
      "outputs": [
        {
          "internalType": "string",
          "name": "name",
          "type": "string"
        },
        {
          "internalType": "address",
          "name": "addr",
          "type": "address"
        }
      ],
      "payable": false,
      "stateMutability": "view",
      "type": "function"
    },
    {
      "constant": true,
      "inputs": [],
      "name": "getBalanceReservedWei",
      "outputs": [
        {
          "internalType": "uint256",
          "name": "",
          "type": "uint256"
        }
      ],
      "payable": false,
      "stateMutability": "view",
      "type": "function"
    },
    {
      "constant": true,
      "inputs": [],
      "name": "getProposalCount",
      "outputs": [
        {
          "internalType": "uint32",
          "name": "",
          "type": "uint32"
        }
      ],
      "payable": false,
      "stateMutability": "view",
      "type": "function"
    },
    {
      "constant": true,
      "inputs": [
        {
          "internalType": "uint8",
          "name": "_ownerKey",
          "type": "uint8"
        }
      ],
      "name": "getOwnerByKey",
      "outputs": [
        {
          "internalType": "string",
          "name": "",
          "type": "string"
        },
        {
          "internalType": "address",
          "name": "",
          "type": "address"
        }
      ],
      "payable": false,
      "stateMutability": "view",
      "type": "function"
    },
    {
      "constant": true,
      "inputs": [],
      "name": "callerIsOwnerGetKeyOrRevert",
      "outputs": [
        {
          "internalType": "uint8",
          "name": "",
          "type": "uint8"
        }
      ],
      "payable": false,
      "stateMutability": "view",
      "type": "function"
    },
    {
      "constant": false,
      "inputs": [
        {
          "internalType": "address payable",
          "name": "_recipientAddr",
          "type": "address"
        },
        {
          "internalType": "uint256",
          "name": "_valueWei",
          "type": "uint256"
        },
        {
          "internalType": "string",
          "name": "_description",
          "type": "string"
        }
      ],
      "name": "addProposal",
      "outputs": [],
      "payable": false,
      "stateMutability": "nonpayable",
      "type": "function"
    },
    {
      "constant": true,
      "inputs": [
        {
          "internalType": "uint32",
          "name": "_proposalKey",
          "type": "uint32"
        }
      ],
      "name": "getProposal",
      "outputs": [
        {
          "internalType": "uint8",
          "name": "",
          "type": "uint8"
        },
        {
          "internalType": "address",
          "name": "",
          "type": "address"
        },
        {
          "internalType": "uint256",
          "name": "",
          "type": "uint256"
        },
        {
          "internalType": "string",
          "name": "",
          "type": "string"
        },
        {
          "internalType": "uint8[4]",
          "name": "",
          "type": "uint8[4]"
        },
        {
          "internalType": "uint8",
          "name": "",
          "type": "uint8"
        }
      ],
      "payable": false,
      "stateMutability": "view",
      "type": "function"
    },
    {
      "constant": false,
      "inputs": [
        {
          "internalType": "uint32",
          "name": "_proposalKey",
          "type": "uint32"
        }
      ],
      "name": "cancelProposal",
      "outputs": [],
      "payable": false,
      "stateMutability": "nonpayable",
      "type": "function"
    },
    {
      "constant": false,
      "inputs": [
        {
          "internalType": "uint32",
          "name": "_proposalKey",
          "type": "uint32"
        },
        {
          "internalType": "uint8",
          "name": "_vote",
          "type": "uint8"
        }
      ],
      "name": "castVote",
      "outputs": [],
      "payable": false,
      "stateMutability": "nonpayable",
      "type": "function"
    }
  ],
  "bytecode": "0x60806040523480156200001157600080fd5b50604051620019003803806200190083398181016040526101008110156200003857600080fd5b81019080805160405193929190846401000000008211156200005957600080fd5b838201915060208201858111156200007057600080fd5b82518660018202830111640100000000821117156200008e57600080fd5b8083526020830192505050908051906020019080838360005b83811015620000c4578082015181840152602081019050620000a7565b50505050905090810190601f168015620000f25780820380516001836020036101000a031916815260200191505b5060405260200180519060200190929190805160405193929190846401000000008211156200012057600080fd5b838201915060208201858111156200013757600080fd5b82518660018202830111640100000000821117156200015557600080fd5b8083526020830192505050908051906020019080838360005b838110156200018b5780820151818401526020810190506200016e565b50505050905090810190601f168015620001b95780820380516001836020036101000a031916815260200191505b506040526020018051906020019092919080516040519392919084640100000000821115620001e757600080fd5b83820191506020820185811115620001fe57600080fd5b82518660018202830111640100000000821117156200021c57600080fd5b8083526020830192505050908051906020019080838360005b838110156200025257808201518184015260208101905062000235565b50505050905090810190601f168015620002805780820380516001836020036101000a031916815260200191505b506040526020018051906020019092919080516040519392919084640100000000821115620002ae57600080fd5b83820191506020820185811115620002c557600080fd5b8251866001820283011164010000000082111715620002e357600080fd5b8083526020830192505050908051906020019080838360005b8381101562000319578082015181840152602081019050620002fc565b50505050905090810190601f168015620003475780820380516001836020036101000a031916815260200191505b506040526020018051906020019092919050505087600080600481106200036a57fe5b600202016000019080519060200190620003869291906200056f565b5086600080600481106200039657fe5b6002020160010160006101000a81548173ffffffffffffffffffffffffffffffffffffffff021916908373ffffffffffffffffffffffffffffffffffffffff160217905550856000600160048110620003eb57fe5b600202016000019080519060200190620004079291906200056f565b508460006001600481106200041857fe5b6002020160010160006101000a81548173ffffffffffffffffffffffffffffffffffffffff021916908373ffffffffffffffffffffffffffffffffffffffff1602179055508360006002600481106200046d57fe5b600202016000019080519060200190620004899291906200056f565b508260006002600481106200049a57fe5b6002020160010160006101000a81548173ffffffffffffffffffffffffffffffffffffffff021916908373ffffffffffffffffffffffffffffffffffffffff160217905550816000600360048110620004ef57fe5b6002020160000190805190602001906200050b9291906200056f565b508060006003600481106200051c57fe5b6002020160010160006101000a81548173ffffffffffffffffffffffffffffffffffffffff021916908373ffffffffffffffffffffffffffffffffffffffff16021790555050505050505050506200061e565b828054600181600116156101000203166002900490600052602060002090601f016020900481019282601f10620005b257805160ff1916838001178555620005e3565b82800160010185558215620005e3579182015b82811115620005e2578251825591602001919060010190620005c5565b5b509050620005f29190620005f6565b5090565b6200061b91905b8082111562000617576000816000905550600101620005fd565b5090565b90565b6112d2806200062e6000396000f3fe6080604052600436106100865760003560e01c806397b786311161005957806397b7863114610446578063b68be84f14610477578063c08cc02d146104c5578063fab514c0146104fc578063ff9fcb001461053d57610086565b8063114f00ab1461008857806339a50caa146101c55780634eca7510146102755780636a46e07a1461035f575b005b34801561009457600080fd5b506100c7600480360360208110156100ab57600080fd5b81019080803563ffffffff169060200190929190505050610568565b604051808760ff1660ff1681526020018673ffffffffffffffffffffffffffffffffffffffff1673ffffffffffffffffffffffffffffffffffffffff1681526020018581526020018060200184600460200280838360005b8381101561013a57808201518184015260208101905061011f565b505050509050018360ff1660ff168152602001828103825285818151815260200191508051906020019080838360005b8381101561018557808201518184015260208101905061016a565b50505050905090810190601f1680156101b25780820380516001836020036101000a031916815260200191505b5097505050505050505060405180910390f35b3480156101d157600080fd5b50610273600480360360608110156101e857600080fd5b81019080803573ffffffffffffffffffffffffffffffffffffffff169060200190929190803590602001909291908035906020019064010000000081111561022f57600080fd5b82018360208201111561024157600080fd5b8035906020019184600183028401116401000000008311171561026357600080fd5b90919293919293905050506107cd565b005b34801561028157600080fd5b506102b16004803603602081101561029857600080fd5b81019080803560ff169060200190929190505050610991565b60405180806020018373ffffffffffffffffffffffffffffffffffffffff1673ffffffffffffffffffffffffffffffffffffffff168152602001828103825284818151815260200191508051906020019080838360005b83811015610323578082015181840152602081019050610308565b50505050905090810190601f1680156103505780820380516001836020036101000a031916815260200191505b50935050505060405180910390f35b34801561036b57600080fd5b506103986004803603602081101561038257600080fd5b8101908080359060200190929190505050610aa8565b60405180806020018373ffffffffffffffffffffffffffffffffffffffff1673ffffffffffffffffffffffffffffffffffffffff168152602001828103825284818151815260200191508051906020019080838360005b8381101561040a5780820151818401526020810190506103ef565b50505050905090810190601f1680156104375780820380516001836020036101000a031916815260200191505b50935050505060405180910390f35b34801561045257600080fd5b5061045b610b87565b604051808260ff1660ff16815260200191505060405180910390f35b34801561048357600080fd5b506104c36004803603604081101561049a57600080fd5b81019080803563ffffffff169060200190929190803560ff169060200190929190505050610c25565b005b3480156104d157600080fd5b506104da610fff565b604051808263ffffffff1663ffffffff16815260200191505060405180910390f35b34801561050857600080fd5b5061053b6004803603602081101561051f57600080fd5b81019080803563ffffffff169060200190929190505050611019565b005b34801561054957600080fd5b50610552611152565b6040518082815260200191505060405180910390f35b6000806000606061057761115c565b6000808763ffffffff16101580156105ac5750600960009054906101000a900463ffffffff1663ffffffff168763ffffffff16105b6105b557600080fd5b6105bd61117e565b600860008963ffffffff1663ffffffff1681526020019081526020016000206040518060c00160405290816000820160009054906101000a900460ff1660ff1660ff1681526020016000820160019054906101000a900473ffffffffffffffffffffffffffffffffffffffff1673ffffffffffffffffffffffffffffffffffffffff1673ffffffffffffffffffffffffffffffffffffffff16815260200160018201548152602001600282018054600181600116156101000203166002900480601f0160208091040260200160405190810160405280929190818152602001828054600181600116156101000203166002900480156106fd5780601f106106d2576101008083540402835291602001916106fd565b820191906000526020600020905b8154815290600101906020018083116106e057829003601f168201915b5050505050815260200160038201600480602002604051908101604052809291908260048015610768576020028201916000905b82829054906101000a900460ff1660ff16815260200190600101906020826000010492830192600103820291508084116107315790505b505050505081526020016004820160009054906101000a900460ff1660ff1660ff16815250509050806000015181602001518260400151836060015184608001518560a001518494508292508191509650965096509650965096505091939550919395565b60006107d7610b87565b905060008410156107e757600080fd5b6000600a543073ffffffffffffffffffffffffffffffffffffffff16310390508481101561081457600080fd5b80858203111561082357600080fd5b600a5485600a5401101561083657600080fd5b84600a60008282540192505081905550600060086000600960009054906101000a900463ffffffff1663ffffffff1663ffffffff1681526020019081526020016000209050828160000160006101000a81548160ff021916908360ff160217905550868160000160016101000a81548173ffffffffffffffffffffffffffffffffffffffff021916908373ffffffffffffffffffffffffffffffffffffffff16021790555085816001018190555084848260020191906108f79291906111d6565b507f3582901a24057e544f780b0a986c6ad50deefa06b847105f1eef56a35b74628d600960009054906101000a900463ffffffff16604051808263ffffffff1663ffffffff16815260200191505060405180910390a16009600081819054906101000a900463ffffffff168092919060010191906101000a81548163ffffffff021916908363ffffffff1602179055505050505050505050565b60606000808360ff16101580156109ab575060048360ff16105b6109b457600080fd5b60008360ff16600481106109c457fe5b6002020160000160008460ff16600481106109db57fe5b6002020160010160009054906101000a900473ffffffffffffffffffffffffffffffffffffffff16818054600181600116156101000203166002900480601f016020809104026020016040519081016040528092919081815260200182805460018160011615610100020316600290048015610a985780601f10610a6d57610100808354040283529160200191610a98565b820191906000526020600020905b815481529060010190602001808311610a7b57829003601f168201915b5050505050915091509150915091565b60008160048110610ab557fe5b60020201600091509050806000018054600181600116156101000203166002900480601f016020809104026020016040519081016040528092919081815260200182805460018160011615610100020316600290048015610b575780601f10610b2c57610100808354040283529160200191610b57565b820191906000526020600020905b815481529060010190602001808311610b3a57829003601f168201915b5050505050908060010160009054906101000a900473ffffffffffffffffffffffffffffffffffffffff16905082565b600080600090505b60048160ff161015610c1c5760008160ff1660048110610bab57fe5b6002020160010160009054906101000a900473ffffffffffffffffffffffffffffffffffffffff1673ffffffffffffffffffffffffffffffffffffffff163373ffffffffffffffffffffffffffffffffffffffff161415610c0f5780915050610c22565b8080600101915050610b8f565b50600080fd5b90565b6000610c2f610b87565b905060008363ffffffff1610158015610c655750600960009054906101000a900463ffffffff1663ffffffff168363ffffffff16105b610c6e57600080fd5b6000600860008563ffffffff1663ffffffff168152602001908152602001600020905060008160040160009054906101000a900460ff1660ff1614610cb257600080fd5b6000816003018360ff1660048110610cc657fe5b602091828204019190069054906101000a900460ff1660ff1614610ce957600080fd5b60018360ff161480610cfe575060028360ff16145b610d0757600080fd5b82816003018360ff1660048110610d1a57fe5b602091828204019190066101000a81548160ff021916908360ff1602179055507fe55188bf18a37270af46d7dbdf2e29e0f2473369739a027647b71dd40157120e84604051808263ffffffff1663ffffffff16815260200191505060405180910390a160008060008090505b60048160ff161015610df7576000846003018260ff1660048110610da657fe5b602091828204019190069054906101000a900460ff16905060018160ff161415610dd557600184019350610de9565b60028160ff161415610de8576001830192505b5b508080600101915050610d86565b5060038260ff1610610eec5760018360040160006101000a81548160ff021916908360ff1602179055508260010154600a600082825403925050819055508260000160019054906101000a900473ffffffffffffffffffffffffffffffffffffffff1673ffffffffffffffffffffffffffffffffffffffff166108fc84600101549081150290604051600060405180830381858888f19350505050158015610ea3573d6000803e3d6000fd5b507f3730b57be3d0c31bcae4515485ee72ca588ec3203604704146cfbf14459fd8cb86604051808263ffffffff1663ffffffff16815260200191505060405180910390a1610ff7565b60038160ff1610610f715760028360040160006101000a81548160ff021916908360ff1602179055508260010154600a600082825403925050819055507fd0f0b1f6d10fcc55df7ca5ae08164c9bb64b9827499c8476404c63de6e558c8386604051808263ffffffff1663ffffffff16815260200191505060405180910390a1610ff6565b600481830160ff161415610ff55760038360040160006101000a81548160ff021916908360ff1602179055508260010154600a600082825403925050819055507fe0f0f40d6bfd48f7ff7402f4eae1c131978a6a116d7735768963e82c04c7d9c786604051808263ffffffff1663ffffffff16815260200191505060405180910390a15b5b5b505050505050565b6000600960009054906101000a900463ffffffff16905090565b611021610b87565b5060008163ffffffff16101580156110565750600960009054906101000a900463ffffffff1663ffffffff168163ffffffff16105b61105f57600080fd5b6000600860008363ffffffff1663ffffffff16815260200190815260200160002060040160009054906101000a900460ff1660ff161461109e57600080fd5b6003600860008363ffffffff1663ffffffff16815260200190815260200160002060040160006101000a81548160ff021916908360ff160217905550600860008263ffffffff1663ffffffff16815260200190815260200160002060010154600a600082825403925050819055507fe0f0f40d6bfd48f7ff7402f4eae1c131978a6a116d7735768963e82c04c7d9c781604051808263ffffffff1663ffffffff16815260200191505060405180910390a150565b6000600a54905090565b6040518060800160405280600490602082028038833980820191505090505090565b6040518060c00160405280600060ff168152602001600073ffffffffffffffffffffffffffffffffffffffff16815260200160008152602001606081526020016111c6611256565b8152602001600060ff1681525090565b828054600181600116156101000203166002900490600052602060002090601f016020900481019282601f1061121757803560ff1916838001178555611245565b82800160010185558215611245579182015b82811115611244578235825591602001919060010190611229565b5b5090506112529190611278565b5090565b6040518060800160405280600490602082028038833980820191505090505090565b61129a91905b8082111561129657600081600090555060010161127e565b5090565b9056fea265627a7a72315820f50c9c07c3bb539be0d0710245a122aed8c07759659683965e1dab5c529c19bf64736f6c634300050c0032",
  "source": "pragma solidity ^0.5.12;\n\ncontract PotGovernance {\n\n  // An owner is allowed to govern the pot.\n  struct PotOwner {\n    string name;\n    address addr;\n  }\n  \n  // The owners are set at contract construction.\n  PotOwner[4] public potOwners;\n\n  // A proposal to transfer ether from the pot to some address.\n  struct Proposal {\n    uint8 ownerKeyProposer;\n    address payable recipientAddr;\n    uint256 valueWei;\n    string description;\n    \n    // Vote status for each ower (by owner key as index):\n    // 0: Not voted, 1: Approved, 2: Rejected\n    uint8[4] ownerVoteStatus;\n    \n    // 0: Accepting votes, 1: Approved and closed, 2: Rejected and closed, 3: Cancelled\n    uint8 status;\n  }\n  \n  mapping (uint32 => Proposal) proposals;\n  uint32 proposalCount;\n\n  // Value in WEI reserved by pending proposals\n  uint256 balanceReservedWei;\n\n  ////////////\n  // Events //\n  ////////////\n  \n  event ProposalAdded(uint32 _proposalKey);\n  event VoteCast(uint32 _proposalKey);\n  event ProposalApproved(uint32 _proposalKey);\n  event ProposalRejected(uint32 _proposalKey);\n  event ProposalCancelled(uint32 _proposalKey);\n\n  ///////////////////////\n  // F u n c t i o n s //\n  ///////////////////////\n  \n  constructor (string memory _name1, address _addr1,\n\t       string memory _name2, address _addr2,\n\t       string memory _name3, address _addr3,\n\t       string memory _name4, address _addr4) public {\n\n    potOwners[0].name = _name1;\n    potOwners[0].addr = _addr1;\n    potOwners[1].name = _name2;\n    potOwners[1].addr = _addr2;\n    potOwners[2].name = _name3;\n    potOwners[2].addr = _addr3;\n    potOwners[3].name = _name4;\n    potOwners[3].addr = _addr4;\n  }\n\n  \n  // This is the function that receives pot deposits\n  function () external payable {}\n\n\n  function getBalanceReservedWei () external view returns (uint256) {\n    return balanceReservedWei;\n  }\n\n\n  function getProposalCount () external view returns (uint32) {\n    return proposalCount;\n  }\n  \n  \n  function getOwnerByKey(uint8 _ownerKey) external view returns (string memory, address) {\n    require(_ownerKey >= 0 && _ownerKey <4);\n    return (potOwners[_ownerKey].name, potOwners[_ownerKey].addr);\n  }\n\n  \n  function callerIsOwnerGetKeyOrRevert() public view returns (uint8) {\n    for (uint8 i = 0; i < 4; i ++)\n      {\n        if (msg.sender == potOwners[i].addr) {\n\t  return i;\n        }\n      }\n    revert();\n  }\n\n  \n  function addProposal(address payable _recipientAddr,\n\t\t       uint256 _valueWei,\n\t\t       string calldata _description) external {\n      \n    // Require caller is pot owner\n    uint8 ownerKey = callerIsOwnerGetKeyOrRevert();\n      \n    // Require available balance suffices\n    require(_valueWei >= 0);\n    uint256 availableWei = address(this).balance - balanceReservedWei;\n    require(availableWei >= _valueWei);\n\n    // Require absece of overflows\n    require(availableWei - _valueWei <= availableWei);\n    require(balanceReservedWei + _valueWei >= balanceReservedWei);\n    \n    // Update reserved balance\n    balanceReservedWei += _valueWei;\n      \n    // Create proposal\n    Proposal storage proposal = proposals[proposalCount];\n    proposal.ownerKeyProposer = ownerKey;\n    proposal.recipientAddr = _recipientAddr;\n    proposal.valueWei = _valueWei;\n    proposal.description = _description;\n    \n    emit ProposalAdded(proposalCount);\n\n    proposalCount ++;\n  }\n\n        \n  function getProposal(uint32 _proposalKey)\n    external view returns (uint8,               // owner key\n  \t\t\t   address,             // recipient address\n  \t\t\t   uint256,             // value WEI\n  \t\t\t   string memory,       // description\n\t\t\t   uint8[4] memory,     // owner vote status\n\t\t\t   uint8) {             // proposal status\n\n    // Require valid proposal\n    require(_proposalKey >= 0 && _proposalKey < proposalCount);\n\n    Proposal memory p = proposals[_proposalKey];\n\n    return (p.ownerKeyProposer,\n\t    p.recipientAddr,\n\t    p.valueWei,\n\t    p.description,\n\t    p.ownerVoteStatus,\n\t    p.status);\n  }\n  \n  function cancelProposal(uint32 _proposalKey) external {\n\n    // Require caller is a pot owner\n    callerIsOwnerGetKeyOrRevert();\n      \n    // Require valid proposal\n    require(_proposalKey >= 0 && _proposalKey < proposalCount);\n\n    // Require proposal accepting votes\n    require(proposals[_proposalKey].status == 0);\n\n    // Update proposal and release reserved funds\n    proposals[_proposalKey].status = 3;\n    balanceReservedWei -= proposals[_proposalKey].valueWei;\n\n    emit ProposalCancelled(_proposalKey);\n  }\n  \n  function castVote(uint32 _proposalKey, uint8 _vote) external {\n\n    // Require caller is a pot owner\n    uint8 ownerKey = callerIsOwnerGetKeyOrRevert();\n      \n    // Require valid proposal\n    require(_proposalKey >= 0 && _proposalKey < proposalCount);\n      \n    // Require proposal accepting votes\n    Proposal storage proposal = proposals[_proposalKey];\n    require(proposal.status == 0);\n      \n    // Require caller has not voted yet\n    require(proposal.ownerVoteStatus[ownerKey] == 0);\n      \n    // Require vote to be valid\n    require(_vote == 1 || _vote == 2);\n      \n    // Update proposal\n    proposal.ownerVoteStatus[ownerKey] = _vote;\n\n    emit VoteCast(_proposalKey);\n    \n    // Get updated score on proposal\n    uint8 proCount;\n    uint8 conCount;\n    for (uint8 i = 0; i < 4; i ++) {\n      uint8 vote = proposal.ownerVoteStatus[i];\n      if (vote == 1) {\n\tproCount += 1;\n      } else if (vote == 2) {\n\tconCount += 1;\n      }\n    }\n\n    // Update proposal status\n    if (proCount >= 3) {\n\n      proposal.status = 1;\n      balanceReservedWei -= proposal.valueWei;\n      proposal.recipientAddr.transfer(proposal.valueWei);\n      emit ProposalApproved(_proposalKey);\n      \n    } else if (conCount >= 3) {\n\n      proposal.status = 2;\n      balanceReservedWei -= proposal.valueWei;\n      emit ProposalRejected(_proposalKey);\n\n    } else if (proCount + conCount == 4) {\n\n      proposal.status = 3;\n      balanceReservedWei -= proposal.valueWei;\n      emit ProposalCancelled(_proposalKey);\n    }\n  }\n}\n",
  "sourcePath": "/ntfs/projects/ethereum-pot-governance/contracts/PotGovernance.sol",
  "compiler": {
    "name": "solc",
    "version": "0.5.12+commit.7709ece9.Emscripten.clang"
  },
  "schemaVersion": "3.0.13",
  "updatedAt": "2019-10-18T10:47:42.260Z",
  "devdoc": {
    "methods": {}
  },
  "userdoc": {
    "methods": {
      "constructor": "////////////////////"
    }
  }
}